{
  "contractName": "BlockTodos",
  "abi": [
    {
      "inputs": [],
      "stateMutability": "nonpayable",
      "type": "constructor"
    },
    {
      "anonymous": false,
      "inputs": [
        {
          "indexed": false,
          "internalType": "string",
          "name": "task",
          "type": "string"
        },
        {
          "indexed": false,
          "internalType": "uint256",
          "name": "taskNumber",
          "type": "uint256"
        }
      ],
      "name": "TaskCreated",
      "type": "event"
    },
    {
      "inputs": [],
      "name": "taskCount",
      "outputs": [
        {
          "internalType": "uint256",
          "name": "",
          "type": "uint256"
        }
      ],
      "stateMutability": "view",
      "type": "function",
      "constant": true
    },
    {
      "inputs": [
        {
          "internalType": "uint256",
          "name": "",
          "type": "uint256"
        }
      ],
      "name": "todos",
      "outputs": [
        {
          "internalType": "string",
          "name": "taskName",
          "type": "string"
        },
        {
          "internalType": "bool",
          "name": "isCompleted",
          "type": "bool"
        }
      ],
      "stateMutability": "view",
      "type": "function",
      "constant": true
    },
    {
      "inputs": [
        {
          "internalType": "string",
          "name": "_taskName",
          "type": "string"
        }
      ],
      "name": "createTask",
      "outputs": [],
      "stateMutability": "nonpayable",
      "type": "function"
    }
  ],
  "bytecode": "0x608060405234801561001057600080fd5b5060008081905550610925806100276000396000f3fe608060405234801561001057600080fd5b50600436106100415760003560e01c8063111002aa14610046578063b6cb58a514610062578063bc8bc2b414610080575b600080fd5b610060600480360381019061005b919061038d565b6100b1565b005b61006a610174565b60405161007791906103ef565b60405180910390f35b61009a60048036038101906100959190610436565b61017a565b6040516100a8929190610506565b60405180910390f35b604051806040016040528082815260200160001515815250600160008060008154809291906100df90610565565b919050558152602001908152602001600020600082015181600001908161010691906107b9565b5060208201518160010160006101000a81548160ff0219169083151502179055509050507fed1d390c812a65783a09786b88b832ef75bb16882fbc56eeea9bf61a4c1a8ac781600160005461015b919061088b565b6040516101699291906108bf565b60405180910390a150565b60005481565b600160205280600052604060002060009150905080600001805461019d906105dc565b80601f01602080910402602001604051908101604052809291908181526020018280546101c9906105dc565b80156102165780601f106101eb57610100808354040283529160200191610216565b820191906000526020600020905b8154815290600101906020018083116101f957829003601f168201915b5050505050908060010160009054906101000a900460ff16905082565b6000604051905090565b600080fd5b600080fd5b600080fd5b600080fd5b6000601f19601f8301169050919050565b7f4e487b7100000000000000000000000000000000000000000000000000000000600052604160045260246000fd5b61029a82610251565b810181811067ffffffffffffffff821117156102b9576102b8610262565b5b80604052505050565b60006102cc610233565b90506102d88282610291565b919050565b600067ffffffffffffffff8211156102f8576102f7610262565b5b61030182610251565b9050602081019050919050565b82818337600083830152505050565b600061033061032b846102dd565b6102c2565b90508281526020810184848401111561034c5761034b61024c565b5b61035784828561030e565b509392505050565b600082601f83011261037457610373610247565b5b813561038484826020860161031d565b91505092915050565b6000602082840312156103a3576103a261023d565b5b600082013567ffffffffffffffff8111156103c1576103c0610242565b5b6103cd8482850161035f565b91505092915050565b6000819050919050565b6103e9816103d6565b82525050565b600060208201905061040460008301846103e0565b92915050565b610413816103d6565b811461041e57600080fd5b50565b6000813590506104308161040a565b92915050565b60006020828403121561044c5761044b61023d565b5b600061045a84828501610421565b91505092915050565b600081519050919050565b600082825260208201905092915050565b60005b8381101561049d578082015181840152602081019050610482565b838111156104ac576000848401525b50505050565b60006104bd82610463565b6104c7818561046e565b93506104d781856020860161047f565b6104e081610251565b840191505092915050565b60008115159050919050565b610500816104eb565b82525050565b6000604082019050818103600083015261052081856104b2565b905061052f60208301846104f7565b9392505050565b7f4e487b7100000000000000000000000000000000000000000000000000000000600052601160045260246000fd5b6000610570826103d6565b91507fffffffffffffffffffffffffffffffffffffffffffffffffffffffffffffffff82036105a2576105a1610536565b5b600182019050919050565b7f4e487b7100000000000000000000000000000000000000000000000000000000600052602260045260246000fd5b600060028204905060018216806105f457607f821691505b602082108103610607576106066105ad565b5b50919050565b60008190508160005260206000209050919050565b60006020601f8301049050919050565b600082821b905092915050565b60006008830261066f7fffffffffffffffffffffffffffffffffffffffffffffffffffffffffffffffff82610632565b6106798683610632565b95508019841693508086168417925050509392505050565b6000819050919050565b60006106b66106b16106ac846103d6565b610691565b6103d6565b9050919050565b6000819050919050565b6106d08361069b565b6106e46106dc826106bd565b84845461063f565b825550505050565b600090565b6106f96106ec565b6107048184846106c7565b505050565b5b818110156107285761071d6000826106f1565b60018101905061070a565b5050565b601f82111561076d5761073e8161060d565b61074784610622565b81016020851015610756578190505b61076a61076285610622565b830182610709565b50505b505050565b600082821c905092915050565b600061079060001984600802610772565b1980831691505092915050565b60006107a9838361077f565b9150826002028217905092915050565b6107c282610463565b67ffffffffffffffff8111156107db576107da610262565b5b6107e582546105dc565b6107f082828561072c565b600060209050601f8311600181146108235760008415610811578287015190505b61081b858261079d565b865550610883565b601f1984166108318661060d565b60005b8281101561085957848901518255600182019150602085019450602081019050610834565b868310156108765784890151610872601f89168261077f565b8355505b6001600288020188555050505b505050505050565b6000610896826103d6565b91506108a1836103d6565b9250828210156108b4576108b3610536565b5b828203905092915050565b600060408201905081810360008301526108d981856104b2565b90506108e860208301846103e0565b939250505056fea26469706673582212207bb197762673af79260f3604a5f86a6432ceb6923c6035b05329d0a402fab03d64736f6c634300080f0033",
  "immutableReferences": {},
  "source": "// SPDX-License-Identifier: GPL-3.0\npragma solidity ^0.8.0;\n\ncontract BlockTodos{ \n    uint public taskCount;\n    struct Task { \n        string taskName;\n        bool isCompleted;\n    }\n    mapping(uint => Task) public todos;\n\n    event TaskCreated(string task, uint taskNumber );\n    constructor ()  {\n        taskCount  = 0 ;\n    }\n\n    function createTask(string memory _taskName)  public  {\n        //* Add Task to Mapping\n        todos[taskCount++] = Task(_taskName, false);\n        // * Emit Task Created Event\n        emit TaskCreated(_taskName, taskCount -1);\n        \n    }\n} ",
  "sourcePath": "/Users/collins/Documents/Codiene/Flutter Codes/block_todos/contracts/BlockTodos.sol",
  "compiler": {
    "name": "solc",
    "version": "0.8.15+commit.e14f2714.Emscripten.clang"
  },
  "schemaVersion": "3.4.8",
  "updatedAt": "2022-07-19T21:56:37.607Z",
  "networkType": "ethereum",
  "devdoc": {
    "kind": "dev",
    "methods": {},
    "version": 1
  },
  "userdoc": {
    "kind": "user",
    "methods": {},
    "version": 1
  }
}