{
  "contractName": "BlockTodos",
  "abi": [
    {
      "inputs": [],
      "stateMutability": "nonpayable",
      "type": "constructor"
    },
    {
      "anonymous": false,
      "inputs": [
        {
          "indexed": false,
          "internalType": "string",
          "name": "task",
          "type": "string"
        },
        {
          "indexed": false,
          "internalType": "uint256",
          "name": "taskNumber",
          "type": "uint256"
        }
      ],
      "name": "TaskCreated",
      "type": "event"
    },
    {
      "anonymous": false,
      "inputs": [
        {
          "indexed": false,
          "internalType": "uint256",
          "name": "index",
          "type": "uint256"
        },
        {
          "indexed": false,
          "internalType": "bool",
          "name": "completed",
          "type": "bool"
        }
      ],
      "name": "TaskToggled",
      "type": "event"
    },
    {
      "inputs": [],
      "name": "taskCount",
      "outputs": [
        {
          "internalType": "uint256",
          "name": "",
          "type": "uint256"
        }
      ],
      "stateMutability": "view",
      "type": "function",
      "constant": true
    },
    {
      "inputs": [
        {
          "internalType": "uint256",
          "name": "",
          "type": "uint256"
        }
      ],
      "name": "todos",
      "outputs": [
        {
          "internalType": "string",
          "name": "taskName",
          "type": "string"
        },
        {
          "internalType": "bool",
          "name": "isCompleted",
          "type": "bool"
        }
      ],
      "stateMutability": "view",
      "type": "function",
      "constant": true
    },
    {
      "inputs": [
        {
          "internalType": "string",
          "name": "_taskName",
          "type": "string"
        }
      ],
      "name": "createTask",
      "outputs": [],
      "stateMutability": "nonpayable",
      "type": "function"
    },
    {
      "inputs": [
        {
          "internalType": "uint256",
          "name": "index",
          "type": "uint256"
        },
        {
          "internalType": "bool",
          "name": "isCompleted",
          "type": "bool"
        }
      ],
      "name": "toggleTask",
      "outputs": [],
      "stateMutability": "nonpayable",
      "type": "function"
    }
  ],
  "bytecode": "0x60806040523480156200001157600080fd5b506000808190555060405180604001604052806040518060400160405280600981526020017f54657374205461736b00000000000000000000000000000000000000000000008152508152602001600115158152506001600080815260200190815260200160002060008201518160000190816200009091906200033c565b5060208201518160010160006101000a81548160ff021916908315150217905550905050600160008190555062000423565b600081519050919050565b7f4e487b7100000000000000000000000000000000000000000000000000000000600052604160045260246000fd5b7f4e487b7100000000000000000000000000000000000000000000000000000000600052602260045260246000fd5b600060028204905060018216806200014457607f821691505b6020821081036200015a5762000159620000fc565b5b50919050565b60008190508160005260206000209050919050565b60006020601f8301049050919050565b600082821b905092915050565b600060088302620001c47fffffffffffffffffffffffffffffffffffffffffffffffffffffffffffffffff8262000185565b620001d0868362000185565b95508019841693508086168417925050509392505050565b6000819050919050565b6000819050919050565b60006200021d620002176200021184620001e8565b620001f2565b620001e8565b9050919050565b6000819050919050565b6200023983620001fc565b62000251620002488262000224565b84845462000192565b825550505050565b600090565b6200026862000259565b620002758184846200022e565b505050565b5b818110156200029d57620002916000826200025e565b6001810190506200027b565b5050565b601f821115620002ec57620002b68162000160565b620002c18462000175565b81016020851015620002d1578190505b620002e9620002e08562000175565b8301826200027a565b50505b505050565b600082821c905092915050565b60006200031160001984600802620002f1565b1980831691505092915050565b60006200032c8383620002fe565b9150826002028217905092915050565b6200034782620000c2565b67ffffffffffffffff811115620003635762000362620000cd565b5b6200036f82546200012b565b6200037c828285620002a1565b600060209050601f831160018114620003b457600084156200039f578287015190505b620003ab85826200031e565b8655506200041b565b601f198416620003c48662000160565b60005b82811015620003ee57848901518255600182019150602085019450602081019050620003c7565b868310156200040e57848901516200040a601f891682620002fe565b8355505b6001600288020188555050505b505050505050565b610a1e80620004336000396000f3fe608060405234801561001057600080fd5b506004361061004c5760003560e01c8063111002aa146100515780634cad79171461006d578063b6cb58a514610089578063bc8bc2b4146100a7575b600080fd5b61006b600480360381019061006691906103f1565b6100d8565b005b610087600480360381019061008291906104a8565b61019b565b005b6100916101d8565b60405161009e91906104f7565b60405180910390f35b6100c160048036038101906100bc9190610512565b6101de565b6040516100cf9291906105d6565b60405180910390f35b6040518060400160405280828152602001600015158152506001600080600081548092919061010690610635565b919050558152602001908152602001600020600082015181600001908161012d9190610889565b5060208201518160010160006101000a81548160ff0219169083151502179055509050507fed1d390c812a65783a09786b88b832ef75bb16882fbc56eeea9bf61a4c1a8ac7816001600054610182919061095b565b60405161019092919061098f565b60405180910390a150565b7fe668c7a227d9261aa1f964bf5a852ab642446a7af6c29405caf8d0e9ce2c11f082826040516101cc9291906109bf565b60405180910390a15050565b60005481565b6001602052806000526040600020600091509050806000018054610201906106ac565b80601f016020809104026020016040519081016040528092919081815260200182805461022d906106ac565b801561027a5780601f1061024f5761010080835404028352916020019161027a565b820191906000526020600020905b81548152906001019060200180831161025d57829003601f168201915b5050505050908060010160009054906101000a900460ff16905082565b6000604051905090565b600080fd5b600080fd5b600080fd5b600080fd5b6000601f19601f8301169050919050565b7f4e487b7100000000000000000000000000000000000000000000000000000000600052604160045260246000fd5b6102fe826102b5565b810181811067ffffffffffffffff8211171561031d5761031c6102c6565b5b80604052505050565b6000610330610297565b905061033c82826102f5565b919050565b600067ffffffffffffffff82111561035c5761035b6102c6565b5b610365826102b5565b9050602081019050919050565b82818337600083830152505050565b600061039461038f84610341565b610326565b9050828152602081018484840111156103b0576103af6102b0565b5b6103bb848285610372565b509392505050565b600082601f8301126103d8576103d76102ab565b5b81356103e8848260208601610381565b91505092915050565b600060208284031215610407576104066102a1565b5b600082013567ffffffffffffffff811115610425576104246102a6565b5b610431848285016103c3565b91505092915050565b6000819050919050565b61044d8161043a565b811461045857600080fd5b50565b60008135905061046a81610444565b92915050565b60008115159050919050565b61048581610470565b811461049057600080fd5b50565b6000813590506104a28161047c565b92915050565b600080604083850312156104bf576104be6102a1565b5b60006104cd8582860161045b565b92505060206104de85828601610493565b9150509250929050565b6104f18161043a565b82525050565b600060208201905061050c60008301846104e8565b92915050565b600060208284031215610528576105276102a1565b5b60006105368482850161045b565b91505092915050565b600081519050919050565b600082825260208201905092915050565b60005b8381101561057957808201518184015260208101905061055e565b83811115610588576000848401525b50505050565b60006105998261053f565b6105a3818561054a565b93506105b381856020860161055b565b6105bc816102b5565b840191505092915050565b6105d081610470565b82525050565b600060408201905081810360008301526105f0818561058e565b90506105ff60208301846105c7565b9392505050565b7f4e487b7100000000000000000000000000000000000000000000000000000000600052601160045260246000fd5b60006106408261043a565b91507fffffffffffffffffffffffffffffffffffffffffffffffffffffffffffffffff820361067257610671610606565b5b600182019050919050565b7f4e487b7100000000000000000000000000000000000000000000000000000000600052602260045260246000fd5b600060028204905060018216806106c457607f821691505b6020821081036106d7576106d661067d565b5b50919050565b60008190508160005260206000209050919050565b60006020601f8301049050919050565b600082821b905092915050565b60006008830261073f7fffffffffffffffffffffffffffffffffffffffffffffffffffffffffffffffff82610702565b6107498683610702565b95508019841693508086168417925050509392505050565b6000819050919050565b600061078661078161077c8461043a565b610761565b61043a565b9050919050565b6000819050919050565b6107a08361076b565b6107b46107ac8261078d565b84845461070f565b825550505050565b600090565b6107c96107bc565b6107d4818484610797565b505050565b5b818110156107f8576107ed6000826107c1565b6001810190506107da565b5050565b601f82111561083d5761080e816106dd565b610817846106f2565b81016020851015610826578190505b61083a610832856106f2565b8301826107d9565b50505b505050565b600082821c905092915050565b600061086060001984600802610842565b1980831691505092915050565b6000610879838361084f565b9150826002028217905092915050565b6108928261053f565b67ffffffffffffffff8111156108ab576108aa6102c6565b5b6108b582546106ac565b6108c08282856107fc565b600060209050601f8311600181146108f357600084156108e1578287015190505b6108eb858261086d565b865550610953565b601f198416610901866106dd565b60005b8281101561092957848901518255600182019150602085019450602081019050610904565b868310156109465784890151610942601f89168261084f565b8355505b6001600288020188555050505b505050505050565b60006109668261043a565b91506109718361043a565b92508282101561098457610983610606565b5b828203905092915050565b600060408201905081810360008301526109a9818561058e565b90506109b860208301846104e8565b9392505050565b60006040820190506109d460008301856104e8565b6109e160208301846105c7565b939250505056fea26469706673582212208747b3c25b28c21f0ebacbfed98887a9eabf1b52f6b142288f58028693526f9364736f6c634300080f0033",
  "immutableReferences": {},
  "source": "// SPDX-License-Identifier: GPL-3.0\npragma solidity ^0.8.0;\n\ncontract BlockTodos{ \n    ///Public task count variable that holds the total number of tasks on the Blockchain.\n    uint public taskCount;\n    //Task Object\n    struct Task { \n        string taskName;\n        bool isCompleted;\n    }\n    /// Like a Map type Variable in [Dart], or a dictionary type variable in [Swift]\n    /// or a json type variable in [JavaScript]\n    ///the key is a uint256, and the Value is a Task Object.\n    ///Values of a mapping data type are accessed like: `todos[key]`\n    mapping(uint256 => Task) public todos;\n    /// TaskCreated Event will be emitted when a new task is created.\n    event TaskCreated(string task, uint256 taskNumber );\n    /// TaskToggled even will be emitted when a request for a task to be emitted is sent from the client side.\n    /// it takes in the index[key] and  isCompleted[boolean value]\n    event TaskToggled(uint256 index, bool completed );\n    ///Constructor of our Contract\n    constructor ()  {\n        //Initialising Task Count to 0.\n        taskCount  = 0 ;\n        //setting the first task in the dictionary to :::: Task(name, isCompleted )\n        todos[0] = Task(\"Test Task\", true);\n        ///Task Count is being increased, because it holds the total lenght of tasks on the blockchain.\n        taskCount = 1;\n\n    }\n\n    function createTask(string memory _taskName)  public  {\n        //* Add Task to Mapping\n        todos[taskCount++] = Task(_taskName, false);\n        // * Emit Task Created Event\n        emit TaskCreated(_taskName, taskCount -1);\n        \n    }\n     function toggleTask( uint256 index , bool  isCompleted) public {\n        \n        //Check if the index exists in the array\n        //if [Y] Edit the Task based on the index, then emit to the Client side.\n        // if [N] throw an error\n\n\n        \n        emit TaskToggled(index, isCompleted);\n     }\n} ",
  "sourcePath": "/Users/collins/Documents/Codiene/Flutter Codes/block_todos/contracts/BlockTodos.sol",
  "compiler": {
    "name": "solc",
    "version": "0.8.15+commit.e14f2714.Emscripten.clang"
  },
  "schemaVersion": "3.4.8",
  "updatedAt": "2022-07-21T20:29:48.105Z",
  "networkType": "ethereum",
  "devdoc": {
    "kind": "dev",
    "methods": {},
    "version": 1
  },
  "userdoc": {
    "events": {
      "TaskCreated(string,uint256)": {
        "notice": "TaskCreated Event will be emitted when a new task is created."
      },
      "TaskToggled(uint256,bool)": {
        "notice": "TaskToggled even will be emitted when a request for a task to be emitted is sent from the client side. it takes in the index[key] and  isCompleted[boolean value]"
      }
    },
    "kind": "user",
    "methods": {
      "constructor": {
        "notice": "Constructor of our Contract"
      },
      "taskCount()": {
        "notice": "Public task count variable that holds the total number of tasks on the Blockchain."
      },
      "todos(uint256)": {
        "notice": "Like a Map type Variable in [Dart], or a dictionary type variable in [Swift] or a json type variable in [JavaScript] the key is a uint256, and the Value is a Task Object. Values of a mapping data type are accessed like: `todos[key]`"
      }
    },
    "version": 1
  }
}